{
  "_format": "hh-sol-artifact-1",
  "contractName": "NFTCollection",
  "sourceName": "contracts/nft_collection_flattened.sol",
  "abi": [
    {
      "inputs": [
        {
          "internalType": "string",
          "name": "_nftName",
          "type": "string"
        },
        {
          "internalType": "string",
          "name": "_nftSymbol",
          "type": "string"
        }
      ],
      "stateMutability": "nonpayable",
      "type": "constructor"
    },
    {
      "inputs": [],
      "name": "ERC721EnumerableForbiddenBatchMint",
      "type": "error"
    },
    {
      "inputs": [
        {
          "internalType": "address",
          "name": "sender",
          "type": "address"
        },
        {
          "internalType": "uint256",
          "name": "tokenId",
          "type": "uint256"
        },
        {
          "internalType": "address",
          "name": "owner",
          "type": "address"
        }
      ],
      "name": "ERC721IncorrectOwner",
      "type": "error"
    },
    {
      "inputs": [
        {
          "internalType": "address",
          "name": "operator",
          "type": "address"
        },
        {
          "internalType": "uint256",
          "name": "tokenId",
          "type": "uint256"
        }
      ],
      "name": "ERC721InsufficientApproval",
      "type": "error"
    },
    {
      "inputs": [
        {
          "internalType": "address",
          "name": "approver",
          "type": "address"
        }
      ],
      "name": "ERC721InvalidApprover",
      "type": "error"
    },
    {
      "inputs": [
        {
          "internalType": "address",
          "name": "operator",
          "type": "address"
        }
      ],
      "name": "ERC721InvalidOperator",
      "type": "error"
    },
    {
      "inputs": [
        {
          "internalType": "address",
          "name": "owner",
          "type": "address"
        }
      ],
      "name": "ERC721InvalidOwner",
      "type": "error"
    },
    {
      "inputs": [
        {
          "internalType": "address",
          "name": "receiver",
          "type": "address"
        }
      ],
      "name": "ERC721InvalidReceiver",
      "type": "error"
    },
    {
      "inputs": [
        {
          "internalType": "address",
          "name": "sender",
          "type": "address"
        }
      ],
      "name": "ERC721InvalidSender",
      "type": "error"
    },
    {
      "inputs": [
        {
          "internalType": "uint256",
          "name": "tokenId",
          "type": "uint256"
        }
      ],
      "name": "ERC721NonexistentToken",
      "type": "error"
    },
    {
      "inputs": [
        {
          "internalType": "address",
          "name": "owner",
          "type": "address"
        },
        {
          "internalType": "uint256",
          "name": "index",
          "type": "uint256"
        }
      ],
      "name": "ERC721OutOfBoundsIndex",
      "type": "error"
    },
    {
      "anonymous": false,
      "inputs": [
        {
          "indexed": true,
          "internalType": "address",
          "name": "owner",
          "type": "address"
        },
        {
          "indexed": true,
          "internalType": "address",
          "name": "approved",
          "type": "address"
        },
        {
          "indexed": true,
          "internalType": "uint256",
          "name": "tokenId",
          "type": "uint256"
        }
      ],
      "name": "Approval",
      "type": "event"
    },
    {
      "anonymous": false,
      "inputs": [
        {
          "indexed": true,
          "internalType": "address",
          "name": "owner",
          "type": "address"
        },
        {
          "indexed": true,
          "internalType": "address",
          "name": "operator",
          "type": "address"
        },
        {
          "indexed": false,
          "internalType": "bool",
          "name": "approved",
          "type": "bool"
        }
      ],
      "name": "ApprovalForAll",
      "type": "event"
    },
    {
      "anonymous": false,
      "inputs": [
        {
          "indexed": false,
          "internalType": "uint256",
          "name": "_fromTokenId",
          "type": "uint256"
        },
        {
          "indexed": false,
          "internalType": "uint256",
          "name": "_toTokenId",
          "type": "uint256"
        }
      ],
      "name": "BatchMetadataUpdate",
      "type": "event"
    },
    {
      "anonymous": false,
      "inputs": [
        {
          "indexed": false,
          "internalType": "uint256",
          "name": "_tokenId",
          "type": "uint256"
        }
      ],
      "name": "MetadataUpdate",
      "type": "event"
    },
    {
      "anonymous": false,
      "inputs": [
        {
          "indexed": false,
          "internalType": "uint256",
          "name": "",
          "type": "uint256"
        }
      ],
      "name": "NFTMinted",
      "type": "event"
    },
    {
      "anonymous": false,
      "inputs": [
        {
          "indexed": true,
          "internalType": "address",
          "name": "from",
          "type": "address"
        },
        {
          "indexed": true,
          "internalType": "address",
          "name": "to",
          "type": "address"
        },
        {
          "indexed": true,
          "internalType": "uint256",
          "name": "tokenId",
          "type": "uint256"
        }
      ],
      "name": "Transfer",
      "type": "event"
    },
    {
      "inputs": [
        {
          "internalType": "address",
          "name": "to",
          "type": "address"
        },
        {
          "internalType": "uint256",
          "name": "tokenId",
          "type": "uint256"
        }
      ],
      "name": "approve",
      "outputs": [],
      "stateMutability": "nonpayable",
      "type": "function"
    },
    {
      "inputs": [
        {
          "internalType": "address",
          "name": "owner",
          "type": "address"
        }
      ],
      "name": "balanceOf",
      "outputs": [
        {
          "internalType": "uint256",
          "name": "",
          "type": "uint256"
        }
      ],
      "stateMutability": "view",
      "type": "function"
    },
    {
      "inputs": [
        {
          "internalType": "uint256",
          "name": "tokenId",
          "type": "uint256"
        },
        {
          "internalType": "string",
          "name": "_name",
          "type": "string"
        },
        {
          "internalType": "string",
          "name": "_desc",
          "type": "string"
        },
        {
          "internalType": "string",
          "name": "_imgURL",
          "type": "string"
        },
        {
          "internalType": "string",
          "name": "_categoty",
          "type": "string"
        },
        {
          "internalType": "string",
          "name": "_creator",
          "type": "string"
        },
        {
          "internalType": "string",
          "name": "_price",
          "type": "string"
        }
      ],
      "name": "generateMetadata",
      "outputs": [
        {
          "internalType": "string",
          "name": "",
          "type": "string"
        }
      ],
      "stateMutability": "pure",
      "type": "function"
    },
    {
      "inputs": [
        {
          "internalType": "uint256",
          "name": "tokenId",
          "type": "uint256"
        }
      ],
      "name": "getApproved",
      "outputs": [
        {
          "internalType": "address",
          "name": "",
          "type": "address"
        }
      ],
      "stateMutability": "view",
      "type": "function"
    },
    {
      "inputs": [
        {
          "internalType": "address",
          "name": "owner",
          "type": "address"
        },
        {
          "internalType": "address",
          "name": "operator",
          "type": "address"
        }
      ],
      "name": "isApprovedForAll",
      "outputs": [
        {
          "internalType": "bool",
          "name": "",
          "type": "bool"
        }
      ],
      "stateMutability": "view",
      "type": "function"
    },
    {
      "inputs": [
        {
          "internalType": "string",
          "name": "_name",
          "type": "string"
        },
        {
          "internalType": "string",
          "name": "_desc",
          "type": "string"
        },
        {
          "internalType": "string",
          "name": "_imgURL",
          "type": "string"
        },
        {
          "internalType": "string",
          "name": "_category",
          "type": "string"
        },
        {
          "internalType": "string",
          "name": "_creator",
          "type": "string"
        },
        {
          "internalType": "string",
          "name": "_price",
          "type": "string"
        }
      ],
      "name": "mintNfts",
      "outputs": [],
      "stateMutability": "payable",
      "type": "function"
    },
    {
      "inputs": [
        {
          "internalType": "uint256",
          "name": "_count",
          "type": "uint256"
        },
        {
          "internalType": "string",
          "name": "_name",
          "type": "string"
        },
        {
          "internalType": "string",
          "name": "_desc",
          "type": "string"
        },
        {
          "internalType": "string",
          "name": "_imgURL",
          "type": "string"
        },
        {
          "internalType": "string",
          "name": "_category",
          "type": "string"
        },
        {
          "internalType": "string",
          "name": "_creator",
          "type": "string"
        },
        {
          "internalType": "string",
          "name": "_price",
          "type": "string"
        }
      ],
      "name": "mintNftsBulk",
      "outputs": [],
      "stateMutability": "payable",
      "type": "function"
    },
    {
      "inputs": [],
      "name": "name",
      "outputs": [
        {
          "internalType": "string",
          "name": "",
          "type": "string"
        }
      ],
      "stateMutability": "view",
      "type": "function"
    },
    {
      "inputs": [
        {
          "internalType": "uint256",
          "name": "tokenId",
          "type": "uint256"
        }
      ],
      "name": "ownerOf",
      "outputs": [
        {
          "internalType": "address",
          "name": "",
          "type": "address"
        }
      ],
      "stateMutability": "view",
      "type": "function"
    },
    {
      "inputs": [
        {
          "internalType": "string",
          "name": "_tokenURI",
          "type": "string"
        }
      ],
      "name": "safeMint",
      "outputs": [],
      "stateMutability": "nonpayable",
      "type": "function"
    },
    {
      "inputs": [
        {
          "internalType": "address",
          "name": "from",
          "type": "address"
        },
        {
          "internalType": "address",
          "name": "to",
          "type": "address"
        },
        {
          "internalType": "uint256",
          "name": "tokenId",
          "type": "uint256"
        }
      ],
      "name": "safeTransferFrom",
      "outputs": [],
      "stateMutability": "nonpayable",
      "type": "function"
    },
    {
      "inputs": [
        {
          "internalType": "address",
          "name": "from",
          "type": "address"
        },
        {
          "internalType": "address",
          "name": "to",
          "type": "address"
        },
        {
          "internalType": "uint256",
          "name": "tokenId",
          "type": "uint256"
        },
        {
          "internalType": "bytes",
          "name": "data",
          "type": "bytes"
        }
      ],
      "name": "safeTransferFrom",
      "outputs": [],
      "stateMutability": "nonpayable",
      "type": "function"
    },
    {
      "inputs": [
        {
          "internalType": "address",
          "name": "operator",
          "type": "address"
        },
        {
          "internalType": "bool",
          "name": "approved",
          "type": "bool"
        }
      ],
      "name": "setApprovalForAll",
      "outputs": [],
      "stateMutability": "nonpayable",
      "type": "function"
    },
    {
      "inputs": [
        {
          "internalType": "bytes4",
          "name": "interfaceId",
          "type": "bytes4"
        }
      ],
      "name": "supportsInterface",
      "outputs": [
        {
          "internalType": "bool",
          "name": "",
          "type": "bool"
        }
      ],
      "stateMutability": "view",
      "type": "function"
    },
    {
      "inputs": [],
      "name": "symbol",
      "outputs": [
        {
          "internalType": "string",
          "name": "",
          "type": "string"
        }
      ],
      "stateMutability": "view",
      "type": "function"
    },
    {
      "inputs": [
        {
          "internalType": "uint256",
          "name": "index",
          "type": "uint256"
        }
      ],
      "name": "tokenByIndex",
      "outputs": [
        {
          "internalType": "uint256",
          "name": "",
          "type": "uint256"
        }
      ],
      "stateMutability": "view",
      "type": "function"
    },
    {
      "inputs": [
        {
          "internalType": "address",
          "name": "owner",
          "type": "address"
        },
        {
          "internalType": "uint256",
          "name": "index",
          "type": "uint256"
        }
      ],
      "name": "tokenOfOwnerByIndex",
      "outputs": [
        {
          "internalType": "uint256",
          "name": "",
          "type": "uint256"
        }
      ],
      "stateMutability": "view",
      "type": "function"
    },
    {
      "inputs": [
        {
          "internalType": "uint256",
          "name": "tokenId",
          "type": "uint256"
        }
      ],
      "name": "tokenURI",
      "outputs": [
        {
          "internalType": "string",
          "name": "",
          "type": "string"
        }
      ],
      "stateMutability": "view",
      "type": "function"
    },
    {
      "inputs": [],
      "name": "totalSupply",
      "outputs": [
        {
          "internalType": "uint256",
          "name": "",
          "type": "uint256"
        }
      ],
      "stateMutability": "view",
      "type": "function"
    },
    {
      "inputs": [
        {
          "internalType": "address",
          "name": "from",
          "type": "address"
        },
        {
          "internalType": "address",
          "name": "to",
          "type": "address"
        },
        {
          "internalType": "uint256",
          "name": "tokenId",
          "type": "uint256"
        }
      ],
      "name": "transferFrom",
      "outputs": [],
      "stateMutability": "nonpayable",
      "type": "function"
    }
  ],
  "bytecode": "0x60806040526040518060400160405280600381526020017f332e310000000000000000000000000000000000000000000000000000000000815250600c908161004891906102f2565b5034801561005557600080fd5b50604051613b89380380613b898339818101604052810190610077919061050a565b8181816000908161008891906102f2565b50806001908161009891906102f2565b5050505050610582565b600081519050919050565b7f4e487b7100000000000000000000000000000000000000000000000000000000600052604160045260246000fd5b7f4e487b7100000000000000000000000000000000000000000000000000000000600052602260045260246000fd5b6000600282049050600182168061012357607f821691505b602082108103610136576101356100dc565b5b50919050565b60008190508160005260206000209050919050565b60006020601f8301049050919050565b600082821b905092915050565b60006008830261019e7fffffffffffffffffffffffffffffffffffffffffffffffffffffffffffffffff82610161565b6101a88683610161565b95508019841693508086168417925050509392505050565b6000819050919050565b6000819050919050565b60006101ef6101ea6101e5846101c0565b6101ca565b6101c0565b9050919050565b6000819050919050565b610209836101d4565b61021d610215826101f6565b84845461016e565b825550505050565b600090565b610232610225565b61023d818484610200565b505050565b5b818110156102615761025660008261022a565b600181019050610243565b5050565b601f8211156102a6576102778161013c565b61028084610151565b8101602085101561028f578190505b6102a361029b85610151565b830182610242565b50505b505050565b600082821c905092915050565b60006102c9600019846008026102ab565b1980831691505092915050565b60006102e283836102b8565b9150826002028217905092915050565b6102fb826100a2565b67ffffffffffffffff811115610314576103136100ad565b5b61031e825461010b565b610329828285610265565b600060209050601f83116001811461035c576000841561034a578287015190505b61035485826102d6565b8655506103bc565b601f19841661036a8661013c565b60005b828110156103925784890151825560018201915060208501945060208101905061036d565b868310156103af57848901516103ab601f8916826102b8565b8355505b6001600288020188555050505b505050505050565b6000604051905090565b600080fd5b600080fd5b600080fd5b600080fd5b6000601f19601f8301169050919050565b6103fc826103e2565b810181811067ffffffffffffffff8211171561041b5761041a6100ad565b5b80604052505050565b600061042e6103c4565b905061043a82826103f3565b919050565b600067ffffffffffffffff82111561045a576104596100ad565b5b610463826103e2565b9050602081019050919050565b60005b8381101561048e578082015181840152602081019050610473565b60008484015250505050565b60006104ad6104a88461043f565b610424565b9050828152602081018484840111156104c9576104c86103dd565b5b6104d4848285610470565b509392505050565b600082601f8301126104f1576104f06103d8565b5b815161050184826020860161049a565b91505092915050565b60008060408385031215610521576105206103ce565b5b600083015167ffffffffffffffff81111561053f5761053e6103d3565b5b61054b858286016104dc565b925050602083015167ffffffffffffffff81111561056c5761056b6103d3565b5b610578858286016104dc565b9150509250929050565b6135f8806105916000396000f3fe60806040526004361061011f5760003560e01c80636352211e116100a0578063a22cb46511610064578063a22cb46514610410578063b88d4fde14610439578063c87b56dd14610462578063cd3dfc851461049f578063e985e9c5146104bb5761011f565b80636352211e14610305578063695850fb1461034257806370a082311461036b57806389139a45146103a857806395d89b41146103e55761011f565b806323b872dd116100e757806323b872dd1461021d5780632f745c591461024657806342842e0e1461028357806347cb3629146102ac5780634f6ccce7146102c85761011f565b806301ffc9a71461012457806306fdde0314610161578063081812fc1461018c578063095ea7b3146101c957806318160ddd146101f2575b600080fd5b34801561013057600080fd5b5061014b600480360381019061014691906122b6565b6104f8565b60405161015891906122fe565b60405180910390f35b34801561016d57600080fd5b5061017661050a565b60405161018391906123a9565b60405180910390f35b34801561019857600080fd5b506101b360048036038101906101ae9190612401565b61059c565b6040516101c0919061246f565b60405180910390f35b3480156101d557600080fd5b506101f060048036038101906101eb91906124b6565b6105b8565b005b3480156101fe57600080fd5b506102076105ce565b6040516102149190612505565b60405180910390f35b34801561022957600080fd5b50610244600480360381019061023f9190612520565b6105db565b005b34801561025257600080fd5b5061026d600480360381019061026891906124b6565b6106dd565b60405161027a9190612505565b60405180910390f35b34801561028f57600080fd5b506102aa60048036038101906102a59190612520565b610786565b005b6102c660048036038101906102c191906126a8565b6107a6565b005b3480156102d457600080fd5b506102ef60048036038101906102ea9190612401565b6107e4565b6040516102fc9190612505565b60405180910390f35b34801561031157600080fd5b5061032c60048036038101906103279190612401565b61085a565b604051610339919061246f565b60405180910390f35b34801561034e57600080fd5b50610369600480360381019061036491906127dd565b61086c565b005b34801561037757600080fd5b50610392600480360381019061038d9190612826565b610892565b60405161039f9190612505565b60405180910390f35b3480156103b457600080fd5b506103cf60048036038101906103ca9190612853565b61094c565b6040516103dc91906123a9565b60405180910390f35b3480156103f157600080fd5b506103fa6109c2565b60405161040791906123a9565b60405180910390f35b34801561041c57600080fd5b50610437600480360381019061043291906129c9565b610a54565b005b34801561044557600080fd5b50610460600480360381019061045b9190612aaa565b610a6a565b005b34801561046e57600080fd5b5061048960048036038101906104849190612401565b610a8f565b60405161049691906123a9565b60405180910390f35b6104b960048036038101906104b49190612853565b610aa1565b005b3480156104c757600080fd5b506104e260048036038101906104dd9190612b2d565b610afc565b6040516104ef91906122fe565b60405180910390f35b600061050382610b90565b9050919050565b60606000805461051990612b9c565b80601f016020809104026020016040519081016040528092919081815260200182805461054590612b9c565b80156105925780601f1061056757610100808354040283529160200191610592565b820191906000526020600020905b81548152906001019060200180831161057557829003601f168201915b5050505050905090565b60006105a782610bf1565b506105b182610c79565b9050919050565b6105ca82826105c5610cb6565b610cbe565b5050565b6000600880549050905090565b600073ffffffffffffffffffffffffffffffffffffffff168273ffffffffffffffffffffffffffffffffffffffff160361064d5760006040517f64a0ae92000000000000000000000000000000000000000000000000000000008152600401610644919061246f565b60405180910390fd5b6000610661838361065c610cb6565b610cd0565b90508373ffffffffffffffffffffffffffffffffffffffff168173ffffffffffffffffffffffffffffffffffffffff16146106d7578382826040517f64283d7b0000000000000000000000000000000000000000000000000000000081526004016106ce93929190612bcd565b60405180910390fd5b50505050565b60006106e883610892565b821061072d5782826040517fa57d13dc000000000000000000000000000000000000000000000000000000008152600401610724929190612c04565b60405180910390fd5b600660008473ffffffffffffffffffffffffffffffffffffffff1673ffffffffffffffffffffffffffffffffffffffff168152602001908152602001600020600083815260200190815260200160002054905092915050565b6107a183838360405180602001604052806000815250610a6a565b505050565b60006107b2600b610ce6565b905060006107c58289898989898961094c565b90506107d08161086c565b6107da600b610cf4565b5050505050505050565b60006107ee6105ce565b8210610834576000826040517fa57d13dc00000000000000000000000000000000000000000000000000000000815260040161082b929190612c04565b60405180910390fd5b6008828154811061084857610847612c2d565b5b90600052602060002001549050919050565b600061086582610bf1565b9050919050565b6000610878600b610ce6565b90506108843382610d0a565b61088e8183610d28565b5050565b60008073ffffffffffffffffffffffffffffffffffffffff168273ffffffffffffffffffffffffffffffffffffffff16036109055760006040517f89c62b640000000000000000000000000000000000000000000000000000000081526004016108fc919061246f565b60405180910390fd5b600360008373ffffffffffffffffffffffffffffffffffffffff1673ffffffffffffffffffffffffffffffffffffffff168152602001908152602001600020549050919050565b6060600061098c8861095d8b610d84565b89898989896040516020016109789796959493929190612f6a565b604051602081830303815290604052610e52565b90506000816040516020016109a19190613073565b60405160208183030381529060405290508092505050979650505050505050565b6060600180546109d190612b9c565b80601f01602080910402602001604051908101604052809291908181526020018280546109fd90612b9c565b8015610a4a5780601f10610a1f57610100808354040283529160200191610a4a565b820191906000526020600020905b815481529060010190602001808311610a2d57829003601f168201915b5050505050905090565b610a66610a5f610cb6565b8383610e7f565b5050565b610a758484846105db565b610a89610a80610cb6565b85858585610fee565b50505050565b6060610a9a8261119f565b9050919050565b600080600090505b88811015610af157610abb600b610ce6565b91506000610ace838a8a8a8a8a8a61094c565b9050610ad98161086c565b610ae3600b610cf4565b508080600101915050610aa9565b505050505050505050565b6000600560008473ffffffffffffffffffffffffffffffffffffffff1673ffffffffffffffffffffffffffffffffffffffff16815260200190815260200160002060008373ffffffffffffffffffffffffffffffffffffffff1673ffffffffffffffffffffffffffffffffffffffff16815260200190815260200160002060009054906101000a900460ff16905092915050565b6000634906490660e01b7bffffffffffffffffffffffffffffffffffffffffffffffffffffffff1916827bffffffffffffffffffffffffffffffffffffffffffffffffffffffff19161480610bea5750610be9826112b2565b5b9050919050565b600080610bfd8361132c565b9050600073ffffffffffffffffffffffffffffffffffffffff168173ffffffffffffffffffffffffffffffffffffffff1603610c7057826040517f7e273289000000000000000000000000000000000000000000000000000000008152600401610c679190612505565b60405180910390fd5b80915050919050565b60006004600083815260200190815260200160002060009054906101000a900473ffffffffffffffffffffffffffffffffffffffff169050919050565b600033905090565b610ccb8383836001611369565b505050565b6000610cdd84848461152e565b90509392505050565b600081600001549050919050565b6001816000016000828254019250508190555050565b610d2482826040518060200160405280600081525061164b565b5050565b80600a60008481526020019081526020016000209081610d489190613241565b507ff8e1a15aba9398e019f0b49df1a4fde98ee17ae345cb5f6b5e2c27f5033e8ce782604051610d789190612505565b60405180910390a15050565b606060006001610d938461166f565b01905060008167ffffffffffffffff811115610db257610db161257d565b5b6040519080825280601f01601f191660200182016040528015610de45781602001600182028036833780820191505090505b509050600082602001820190505b600115610e47578080600190039150507f3031323334353637383961626364656600000000000000000000000000000000600a86061a8153600a8581610e3b57610e3a613313565b5b04945060008503610df2575b819350505050919050565b6060610e78826040518060600160405280604081526020016135836040913960016117c2565b9050919050565b600073ffffffffffffffffffffffffffffffffffffffff168273ffffffffffffffffffffffffffffffffffffffff1603610ef057816040517f5b08ba18000000000000000000000000000000000000000000000000000000008152600401610ee7919061246f565b60405180910390fd5b80600560008573ffffffffffffffffffffffffffffffffffffffff1673ffffffffffffffffffffffffffffffffffffffff16815260200190815260200160002060008473ffffffffffffffffffffffffffffffffffffffff1673ffffffffffffffffffffffffffffffffffffffff16815260200190815260200160002060006101000a81548160ff0219169083151502179055508173ffffffffffffffffffffffffffffffffffffffff168373ffffffffffffffffffffffffffffffffffffffff167f17307eab39ab6107e8899845ad3d59bd9653f200f220920489ca2b5937696c3183604051610fe191906122fe565b60405180910390a3505050565b60008373ffffffffffffffffffffffffffffffffffffffff163b1115611198578273ffffffffffffffffffffffffffffffffffffffff1663150b7a02868685856040518563ffffffff1660e01b815260040161104d9493929190613397565b6020604051808303816000875af192505050801561108957506040513d601f19601f8201168201806040525081019061108691906133f8565b60015b61110d573d80600081146110b9576040519150601f19603f3d011682016040523d82523d6000602084013e6110be565b606091505b50600081510361110557836040517f64a0ae920000000000000000000000000000000000000000000000000000000081526004016110fc919061246f565b60405180910390fd5b805181602001fd5b63150b7a0260e01b7bffffffffffffffffffffffffffffffffffffffffffffffffffffffff1916817bffffffffffffffffffffffffffffffffffffffffffffffffffffffff19161461119657836040517f64a0ae9200000000000000000000000000000000000000000000000000000000815260040161118d919061246f565b60405180910390fd5b505b5050505050565b60606111aa82610bf1565b506000600a600084815260200190815260200160002080546111cb90612b9c565b80601f01602080910402602001604051908101604052809291908181526020018280546111f790612b9c565b80156112445780601f1061121957610100808354040283529160200191611244565b820191906000526020600020905b81548152906001019060200180831161122757829003601f168201915b505050505090506000611255611956565b9050600081510361126a5781925050506112ad565b60008251111561129f578082604051602001611287929190613425565b604051602081830303815290604052925050506112ad565b6112a88461196d565b925050505b919050565b60007f780e9d63000000000000000000000000000000000000000000000000000000007bffffffffffffffffffffffffffffffffffffffffffffffffffffffff1916827bffffffffffffffffffffffffffffffffffffffffffffffffffffffff191614806113255750611324826119d6565b5b9050919050565b60006002600083815260200190815260200160002060009054906101000a900473ffffffffffffffffffffffffffffffffffffffff169050919050565b80806113a25750600073ffffffffffffffffffffffffffffffffffffffff168273ffffffffffffffffffffffffffffffffffffffff1614155b156114d65760006113b284610bf1565b9050600073ffffffffffffffffffffffffffffffffffffffff168373ffffffffffffffffffffffffffffffffffffffff161415801561141d57508273ffffffffffffffffffffffffffffffffffffffff168173ffffffffffffffffffffffffffffffffffffffff1614155b8015611430575061142e8184610afc565b155b1561147257826040517fa9fbf51f000000000000000000000000000000000000000000000000000000008152600401611469919061246f565b60405180910390fd5b81156114d457838573ffffffffffffffffffffffffffffffffffffffff168273ffffffffffffffffffffffffffffffffffffffff167f8c5be1e5ebec7d5bd14f71427d1e84f3dd0314c0f7b2291e5b200ac8c7c3b92560405160405180910390a45b505b836004600085815260200190815260200160002060006101000a81548173ffffffffffffffffffffffffffffffffffffffff021916908373ffffffffffffffffffffffffffffffffffffffff16021790555050505050565b60008061153c858585611ab8565b9050600073ffffffffffffffffffffffffffffffffffffffff168173ffffffffffffffffffffffffffffffffffffffff16036115805761157b84611cd2565b6115bf565b8473ffffffffffffffffffffffffffffffffffffffff168173ffffffffffffffffffffffffffffffffffffffff16146115be576115bd8185611d1b565b5b5b600073ffffffffffffffffffffffffffffffffffffffff168573ffffffffffffffffffffffffffffffffffffffff1603611601576115fc84611e06565b611640565b8473ffffffffffffffffffffffffffffffffffffffff168173ffffffffffffffffffffffffffffffffffffffff161461163f5761163e8585611ed7565b5b5b809150509392505050565b6116558383611f62565b61166a611660610cb6565b6000858585610fee565b505050565b600080600090507a184f03e93ff9f4daa797ed6e38ed64bf6a1f01000000000000000083106116cd577a184f03e93ff9f4daa797ed6e38ed64bf6a1f01000000000000000083816116c3576116c2613313565b5b0492506040810190505b6d04ee2d6d415b85acef8100000000831061170a576d04ee2d6d415b85acef81000000008381611700576116ff613313565b5b0492506020810190505b662386f26fc10000831061173957662386f26fc10000838161172f5761172e613313565b5b0492506010810190505b6305f5e1008310611762576305f5e100838161175857611757613313565b5b0492506008810190505b612710831061178757612710838161177d5761177c613313565b5b0492506004810190505b606483106117aa57606483816117a05761179f613313565b5b0492506002810190505b600a83106117b9576001810190505b80915050919050565b606060008451036117e45760405180602001604052806000815250905061194f565b6000826118165760036002865160046117fd9190613478565b61180791906134ba565b61181191906134ee565b61183d565b60036002865161182691906134ba565b61183091906134ee565b600461183c9190613478565b5b905060008167ffffffffffffffff81111561185b5761185a61257d565b5b6040519080825280601f01601f19166020018201604052801561188d5781602001600182028036833780820191505090505b50905060018501602082018788518901602081018051600082525b82841015611903576003840193508351603f8160121c168701518653600186019550603f81600c1c168701518653600186019550603f8160061c168701518653600186019550603f81168701518653600186019550506118a8565b80825289156119435760038c510660018114611926576002811461193957611941565b603d6001870353603d6002870353611941565b603d60018703535b505b50505050505080925050505b9392505050565b606060405180602001604052806000815250905090565b606061197882610bf1565b506000611983611956565b905060008151116119a357604051806020016040528060008152506119ce565b806119ad84610d84565b6040516020016119be929190613425565b6040516020818303038152906040525b915050919050565b60007f80ac58cd000000000000000000000000000000000000000000000000000000007bffffffffffffffffffffffffffffffffffffffffffffffffffffffff1916827bffffffffffffffffffffffffffffffffffffffffffffffffffffffff19161480611aa157507f5b5e139f000000000000000000000000000000000000000000000000000000007bffffffffffffffffffffffffffffffffffffffffffffffffffffffff1916827bffffffffffffffffffffffffffffffffffffffffffffffffffffffff1916145b80611ab15750611ab08261205b565b5b9050919050565b600080611ac48461132c565b9050600073ffffffffffffffffffffffffffffffffffffffff168373ffffffffffffffffffffffffffffffffffffffff1614611b0657611b058184866120c5565b5b600073ffffffffffffffffffffffffffffffffffffffff168173ffffffffffffffffffffffffffffffffffffffff1614611b9757611b48600085600080611369565b6001600360008373ffffffffffffffffffffffffffffffffffffffff1673ffffffffffffffffffffffffffffffffffffffff168152602001908152602001600020600082825403925050819055505b600073ffffffffffffffffffffffffffffffffffffffff168573ffffffffffffffffffffffffffffffffffffffff1614611c1a576001600360008773ffffffffffffffffffffffffffffffffffffffff1673ffffffffffffffffffffffffffffffffffffffff168152602001908152602001600020600082825401925050819055505b846002600086815260200190815260200160002060006101000a81548173ffffffffffffffffffffffffffffffffffffffff021916908373ffffffffffffffffffffffffffffffffffffffff160217905550838573ffffffffffffffffffffffffffffffffffffffff168273ffffffffffffffffffffffffffffffffffffffff167fddf252ad1be2c89b69c2b068fc378daa952ba7f163c4a11628f55a4df523b3ef60405160405180910390a4809150509392505050565b6008805490506009600083815260200190815260200160002081905550600881908060018154018082558091505060019003906000526020600020016000909190919091505550565b6000611d2683610892565b90506000600760008481526020019081526020016000205490506000600660008673ffffffffffffffffffffffffffffffffffffffff1673ffffffffffffffffffffffffffffffffffffffff1681526020019081526020016000209050828214611dd25760008160008581526020019081526020016000205490508082600085815260200190815260200160002081905550826007600083815260200190815260200160002081905550505b6007600085815260200190815260200160002060009055806000848152602001908152602001600020600090555050505050565b60006001600880549050611e1a919061351f565b9050600060096000848152602001908152602001600020549050600060088381548110611e4a57611e49612c2d565b5b906000526020600020015490508060088381548110611e6c57611e6b612c2d565b5b906000526020600020018190555081600960008381526020019081526020016000208190555060096000858152602001908152602001600020600090556008805480611ebb57611eba613553565b5b6001900381819060005260206000200160009055905550505050565b60006001611ee484610892565b611eee919061351f565b905081600660008573ffffffffffffffffffffffffffffffffffffffff1673ffffffffffffffffffffffffffffffffffffffff168152602001908152602001600020600083815260200190815260200160002081905550806007600084815260200190815260200160002081905550505050565b600073ffffffffffffffffffffffffffffffffffffffff168273ffffffffffffffffffffffffffffffffffffffff1603611fd45760006040517f64a0ae92000000000000000000000000000000000000000000000000000000008152600401611fcb919061246f565b60405180910390fd5b6000611fe283836000610cd0565b9050600073ffffffffffffffffffffffffffffffffffffffff168173ffffffffffffffffffffffffffffffffffffffff16146120565760006040517f73c6ac6e00000000000000000000000000000000000000000000000000000000815260040161204d919061246f565b60405180910390fd5b505050565b60007f01ffc9a7000000000000000000000000000000000000000000000000000000007bffffffffffffffffffffffffffffffffffffffffffffffffffffffff1916827bffffffffffffffffffffffffffffffffffffffffffffffffffffffff1916149050919050565b6120d0838383612189565b61218457600073ffffffffffffffffffffffffffffffffffffffff168373ffffffffffffffffffffffffffffffffffffffff160361214557806040517f7e27328900000000000000000000000000000000000000000000000000000000815260040161213c9190612505565b60405180910390fd5b81816040517f177e802f00000000000000000000000000000000000000000000000000000000815260040161217b929190612c04565b60405180910390fd5b505050565b60008073ffffffffffffffffffffffffffffffffffffffff168373ffffffffffffffffffffffffffffffffffffffff161415801561224157508273ffffffffffffffffffffffffffffffffffffffff168473ffffffffffffffffffffffffffffffffffffffff16148061220257506122018484610afc565b5b8061224057508273ffffffffffffffffffffffffffffffffffffffff1661222883610c79565b73ffffffffffffffffffffffffffffffffffffffff16145b5b90509392505050565b6000604051905090565b600080fd5b600080fd5b60007fffffffff0000000000000000000000000000000000000000000000000000000082169050919050565b6122938161225e565b811461229e57600080fd5b50565b6000813590506122b08161228a565b92915050565b6000602082840312156122cc576122cb612254565b5b60006122da848285016122a1565b91505092915050565b60008115159050919050565b6122f8816122e3565b82525050565b600060208201905061231360008301846122ef565b92915050565b600081519050919050565b600082825260208201905092915050565b60005b83811015612353578082015181840152602081019050612338565b60008484015250505050565b6000601f19601f8301169050919050565b600061237b82612319565b6123858185612324565b9350612395818560208601612335565b61239e8161235f565b840191505092915050565b600060208201905081810360008301526123c38184612370565b905092915050565b6000819050919050565b6123de816123cb565b81146123e957600080fd5b50565b6000813590506123fb816123d5565b92915050565b60006020828403121561241757612416612254565b5b6000612425848285016123ec565b91505092915050565b600073ffffffffffffffffffffffffffffffffffffffff82169050919050565b60006124598261242e565b9050919050565b6124698161244e565b82525050565b60006020820190506124846000830184612460565b92915050565b6124938161244e565b811461249e57600080fd5b50565b6000813590506124b08161248a565b92915050565b600080604083850312156124cd576124cc612254565b5b60006124db858286016124a1565b92505060206124ec858286016123ec565b9150509250929050565b6124ff816123cb565b82525050565b600060208201905061251a60008301846124f6565b92915050565b60008060006060848603121561253957612538612254565b5b6000612547868287016124a1565b9350506020612558868287016124a1565b9250506040612569868287016123ec565b9150509250925092565b600080fd5b600080fd5b7f4e487b7100000000000000000000000000000000000000000000000000000000600052604160045260246000fd5b6125b58261235f565b810181811067ffffffffffffffff821117156125d4576125d361257d565b5b80604052505050565b60006125e761224a565b90506125f382826125ac565b919050565b600067ffffffffffffffff8211156126135761261261257d565b5b61261c8261235f565b9050602081019050919050565b82818337600083830152505050565b600061264b612646846125f8565b6125dd565b90508281526020810184848401111561266757612666612578565b5b612672848285612629565b509392505050565b600082601f83011261268f5761268e612573565b5b813561269f848260208601612638565b91505092915050565b60008060008060008060c087890312156126c5576126c4612254565b5b600087013567ffffffffffffffff8111156126e3576126e2612259565b5b6126ef89828a0161267a565b965050602087013567ffffffffffffffff8111156127105761270f612259565b5b61271c89828a0161267a565b955050604087013567ffffffffffffffff81111561273d5761273c612259565b5b61274989828a0161267a565b945050606087013567ffffffffffffffff81111561276a57612769612259565b5b61277689828a0161267a565b935050608087013567ffffffffffffffff81111561279757612796612259565b5b6127a389828a0161267a565b92505060a087013567ffffffffffffffff8111156127c4576127c3612259565b5b6127d089828a0161267a565b9150509295509295509295565b6000602082840312156127f3576127f2612254565b5b600082013567ffffffffffffffff81111561281157612810612259565b5b61281d8482850161267a565b91505092915050565b60006020828403121561283c5761283b612254565b5b600061284a848285016124a1565b91505092915050565b600080600080600080600060e0888a03121561287257612871612254565b5b60006128808a828b016123ec565b975050602088013567ffffffffffffffff8111156128a1576128a0612259565b5b6128ad8a828b0161267a565b965050604088013567ffffffffffffffff8111156128ce576128cd612259565b5b6128da8a828b0161267a565b955050606088013567ffffffffffffffff8111156128fb576128fa612259565b5b6129078a828b0161267a565b945050608088013567ffffffffffffffff81111561292857612927612259565b5b6129348a828b0161267a565b93505060a088013567ffffffffffffffff81111561295557612954612259565b5b6129618a828b0161267a565b92505060c088013567ffffffffffffffff81111561298257612981612259565b5b61298e8a828b0161267a565b91505092959891949750929550565b6129a6816122e3565b81146129b157600080fd5b50565b6000813590506129c38161299d565b92915050565b600080604083850312156129e0576129df612254565b5b60006129ee858286016124a1565b92505060206129ff858286016129b4565b9150509250929050565b600067ffffffffffffffff821115612a2457612a2361257d565b5b612a2d8261235f565b9050602081019050919050565b6000612a4d612a4884612a09565b6125dd565b905082815260208101848484011115612a6957612a68612578565b5b612a74848285612629565b509392505050565b600082601f830112612a9157612a90612573565b5b8135612aa1848260208601612a3a565b91505092915050565b60008060008060808587031215612ac457612ac3612254565b5b6000612ad2878288016124a1565b9450506020612ae3878288016124a1565b9350506040612af4878288016123ec565b925050606085013567ffffffffffffffff811115612b1557612b14612259565b5b612b2187828801612a7c565b91505092959194509250565b60008060408385031215612b4457612b43612254565b5b6000612b52858286016124a1565b9250506020612b63858286016124a1565b9150509250929050565b7f4e487b7100000000000000000000000000000000000000000000000000000000600052602260045260246000fd5b60006002820490506001821680612bb457607f821691505b602082108103612bc757612bc6612b6d565b5b50919050565b6000606082019050612be26000830186612460565b612bef60208301856124f6565b612bfc6040830184612460565b949350505050565b6000604082019050612c196000830185612460565b612c2660208301846124f6565b9392505050565b7f4e487b7100000000000000000000000000000000000000000000000000000000600052603260045260246000fd5b600081905092915050565b7f7b226e616d65223a202200000000000000000000000000000000000000000000600082015250565b6000612c9d600a83612c5c565b9150612ca882612c67565b600a82019050919050565b6000612cbe82612319565b612cc88185612c5c565b9350612cd8818560208601612335565b80840191505092915050565b7f2023000000000000000000000000000000000000000000000000000000000000600082015250565b6000612d1a600283612c5c565b9150612d2582612ce4565b600282019050919050565b7f222c20226465736372697074696f6e223a202200000000000000000000000000600082015250565b6000612d66601383612c5c565b9150612d7182612d30565b601382019050919050565b7f222c2022696d616765223a202200000000000000000000000000000000000000600082015250565b6000612db2600d83612c5c565b9150612dbd82612d7c565b600d82019050919050565b7f222c202261747472696275746573223a205b7b2274726169745f74797065223a60008201527f202243617465676f7279222c202276616c7565223a2022000000000000000000602082015250565b6000612e24603783612c5c565b9150612e2f82612dc8565b603782019050919050565b7f227d2c207b2274726169745f74797065223a202243726561746f72222c20227660008201527f616c7565223a2022000000000000000000000000000000000000000000000000602082015250565b6000612e96602883612c5c565b9150612ea182612e3a565b602882019050919050565b7f227d2c207b2274726169745f74797065223a20225072696365222c202276616c60008201527f7565223a20220000000000000000000000000000000000000000000000000000602082015250565b6000612f08602683612c5c565b9150612f1382612eac565b602682019050919050565b7f227d5d7d00000000000000000000000000000000000000000000000000000000600082015250565b6000612f54600483612c5c565b9150612f5f82612f1e565b600482019050919050565b6000612f7582612c90565b9150612f81828a612cb3565b9150612f8c82612d0d565b9150612f988289612cb3565b9150612fa382612d59565b9150612faf8288612cb3565b9150612fba82612da5565b9150612fc68287612cb3565b9150612fd182612e17565b9150612fdd8286612cb3565b9150612fe882612e89565b9150612ff48285612cb3565b9150612fff82612efb565b915061300b8284612cb3565b915061301682612f47565b915081905098975050505050505050565b7f646174613a6170706c69636174696f6e2f6a736f6e3b6261736536342c000000600082015250565b600061305d601d83612c5c565b915061306882613027565b601d82019050919050565b600061307e82613050565b915061308a8284612cb3565b915081905092915050565b60008190508160005260206000209050919050565b60006020601f8301049050919050565b600082821b905092915050565b6000600883026130f77fffffffffffffffffffffffffffffffffffffffffffffffffffffffffffffffff826130ba565b61310186836130ba565b95508019841693508086168417925050509392505050565b6000819050919050565b600061313e613139613134846123cb565b613119565b6123cb565b9050919050565b6000819050919050565b61315883613123565b61316c61316482613145565b8484546130c7565b825550505050565b600090565b613181613174565b61318c81848461314f565b505050565b5b818110156131b0576131a5600082613179565b600181019050613192565b5050565b601f8211156131f5576131c681613095565b6131cf846130aa565b810160208510156131de578190505b6131f26131ea856130aa565b830182613191565b50505b505050565b600082821c905092915050565b6000613218600019846008026131fa565b1980831691505092915050565b60006132318383613207565b9150826002028217905092915050565b61324a82612319565b67ffffffffffffffff8111156132635761326261257d565b5b61326d8254612b9c565b6132788282856131b4565b600060209050601f8311600181146132ab5760008415613299578287015190505b6132a38582613225565b86555061330b565b601f1984166132b986613095565b60005b828110156132e1578489015182556001820191506020850194506020810190506132bc565b868310156132fe57848901516132fa601f891682613207565b8355505b6001600288020188555050505b505050505050565b7f4e487b7100000000000000000000000000000000000000000000000000000000600052601260045260246000fd5b600081519050919050565b600082825260208201905092915050565b600061336982613342565b613373818561334d565b9350613383818560208601612335565b61338c8161235f565b840191505092915050565b60006080820190506133ac6000830187612460565b6133b96020830186612460565b6133c660408301856124f6565b81810360608301526133d8818461335e565b905095945050505050565b6000815190506133f28161228a565b92915050565b60006020828403121561340e5761340d612254565b5b600061341c848285016133e3565b91505092915050565b60006134318285612cb3565b915061343d8284612cb3565b91508190509392505050565b7f4e487b7100000000000000000000000000000000000000000000000000000000600052601160045260246000fd5b6000613483826123cb565b915061348e836123cb565b925082820261349c816123cb565b915082820484148315176134b3576134b2613449565b5b5092915050565b60006134c5826123cb565b91506134d0836123cb565b92508282019050808211156134e8576134e7613449565b5b92915050565b60006134f9826123cb565b9150613504836123cb565b92508261351457613513613313565b5b828204905092915050565b600061352a826123cb565b9150613535836123cb565b925082820390508181111561354d5761354c613449565b5b92915050565b7f4e487b7100000000000000000000000000000000000000000000000000000000600052603160045260246000fdfe4142434445464748494a4b4c4d4e4f505152535455565758595a6162636465666768696a6b6c6d6e6f707172737475767778797a303132333435363738392b2fa2646970667358221220d6b7db057dabb5490365b3a201529bebf9a3ad6b182839bc11f58c8c5a0a757264736f6c634300081b0033",
  "linkReferences": {},
  "deployedLinkReferences": {}
}